:100000000C9463000C948B000C948B000C9468038C
:100010000C9468030C9468030C948B000C948B0074
:100020000C948B000C948B000C948B000C948B0024
:100030000C948B000C948B000C948B000C948B0014
:100040000C94C6020C948B000C9436030C94100391
:100050000C948B000C948B000C948B000C948B00F4
:100060000C948B000C948B000000000024002700EF
:100070002A0000000008000201000003040700003D
:1000800000000000000000000000230026002900FE
:1000900000000000250028002B00040404040404D0
:1000A0000404020202020202030303030303010227
:1000B00004081020408001020408102001020408F6
:1000C0001020E003E10511241FBECFEFD8E0DEBF12
:1000D000CDBF11E0A0E0B1E0E0E2FCE002C005909D
:1000E0000D92A632B107D9F722E0A6E2B1E001C035
:1000F0001D92AF32B207E1F710E0C2E6D0E004C0D3
:100100002197FE010E94FD05C136D107C9F70E9463
:100110008B040C9403060C94000090E0FC01EE5854
:10012000FF4F2491FC01E255FF4F3491FC01E6564C
:10013000FF4FE491EE23C9F0222339F0233001F17F
:10014000A8F4213019F1223029F1F0E0EE0FFF1F61
:10015000E057FF4FA591B4918FB7F894EC916111DE
:1001600026C030953E233C938FBF08952730A9F0D9
:100170002830C9F0243049F7809180008F7D03C07A
:10018000809180008F7780938000DFCF84B58F7758
:1001900084BDDBCF84B58F7DFBCF8091B0008F779E
:1001A0008093B000D2CF8091B0008F7DF9CF3E2BED
:1001B000DACFCF93DF9390E0FC01E255FF4F24911B
:1001C00086569F4FFC0184918823D1F090E0880FE0
:1001D000991FFC01E859FF4FA591B491FC01E0572C
:1001E000FF4FC591D49161110EC09FB7F8948C91C7
:1001F000E22FE0958E238C932881E223E8839FBF32
:10020000DF91CF9108958FB7F894EC91E22BEC93A6
:100210008FBFF6CFAF92BF92CF92DF92EF92FF9255
:100220000F931F93CF93DF936C017B018B01040F1E
:10023000151FEB015E01AE18BF08C017D10759F0BA
:100240006991D601ED91FC910190F081E02DC601FC
:100250000995892B79F7C501DF91CF911F910F91F6
:10026000FF90EF90DF90CF90BF90AF900895FC018A
:10027000538D448D252F30E0842F90E0821B930B0B
:10028000541710F0CF96089501970895FC01918DB1
:10029000828D981761F0A28DAE0FBF2FB11D5D96B4
:1002A0008C91928D9F5F9F73928F90E008958FEF56
:1002B0009FEF0895FC01918D828D981731F0828D0A
:1002C000E80FF11D858D90E008958FEF9FEF089561
:1002D000FC01918D228D892F90E0805C9F4F821BC5
:1002E00091098F739927089583E791E00E9468012F
:1002F00021E0892B09F420E0822F089580E090E02E
:10030000892B29F00E94740181110C94000008953A
:10031000FC01A48DA80FB92FB11DA35ABF4F2C917A
:10032000848D90E001968F739927848FA689B78971
:100330002C93A089B1898C91837080648C93938D68
:10034000848D981306C00288F389E02D80818F7D0B
:1003500080830895EF92FF920F931F93CF93DF93C3
:10036000EC0181E0888F9B8D8C8D98131AC0E889F1
:10037000F989808185FF15C09FB7F894EE89FF89C0
:100380006083E889F98980818370806480839FBF5E
:1003900081E090E0DF91CF911F910F91FF90EF905E
:1003A0000895F62E0B8D10E00F5F1F4F0F7311276E
:1003B000E02E8C8D8E110CC00FB607FCFACFE889A9
:1003C000F989808185FFF5CFCE010E948801F1CFA8
:1003D000EB8DEC0FFD2FF11DE35AFF4FF0829FB71D
:1003E000F8940B8FEA89FB8980818062CFCFCF930D
:1003F000DF93EC01888D8823B9F0AA89BB89E8894D
:10040000F9898C9185FD03C0808186FD0DC00FB6F2
:1004100007FCF7CF8C9185FFF2CF808185FFEDCF70
:10042000CE010E948801E9CFDF91CF9108952091FC
:100430006801309169012817390771F490916601BC
:1004400080916701981741F0E0916601F0E0EA5D64
:10045000FE4F808190E008958FEF9FEF08950895FB
:10046000EF92FF920F931F93CF93DF93DC015C9683
:10047000ED90FC905D97E114F10479F481E090E057
:1004800013969C938E93129790E080E0DF91CF912A
:100490001F910F91FF90EF9008955196ED91FC916F
:1004A000529750968C915097982F90950FB75E96D3
:1004B0002C915E97122F127021FD6095F894208187
:1004C000112319F1282B2083E7012197F1F728E068
:1004D000462F50E0308160FF1AC0382B3083E7018F
:1004E0002197F1F7BA0175956795215089F7112386
:1004F00081F08081892380830FBF5C968D919C91D0
:100500000197F1F781E090E0C1CF2923DCCF3923B7
:10051000E5CF9081892BEFCF20916801309169015F
:100520002817390761F4809167012091660190E0F6
:10053000805C9F4F821B91098F739927089590E0EB
:1005400080E00895209168013091690128173907EA
:10055000B9F49091660180916701981789F0E09154
:100560006601F0E0EA5DFE4F80812091660130E097
:100570002F5F3F4F2F7333272093660190E008953C
:100580008FEF9FEF089590E080E008951F920F9203
:100590000FB60F9211242F933F938F939F93AF9396
:1005A000BF9380916F0190917001A0917101B09102
:1005B000720130916E0123E0230F2D3758F501961B
:1005C000A11DB11D20936E0180936F019093700166
:1005D000A0937101B093720180916A0190916B01B7
:1005E000A0916C01B0916D010196A11DB11D809388
:1005F0006A0190936B01A0936C01B0936D01BF9160
:10060000AF919F918F913F912F910F900FBE0F90BF
:100610001F90189526E8230F0296A11DB11DD2CF79
:100620001F920F920FB60F9211242F933F934F9367
:100630005F936F937F938F939F93AF93BF93EF934A
:10064000FF9383E791E00E948801FF91EF91BF91B2
:10065000AF919F918F917F916F915F914F913F915A
:100660002F910F900FBE0F901F9018951F920F9211
:100670000FB60F9211242F938F939F93EF93FF93B5
:10068000E0918301F09184018081E0918901F091F2
:100690008A0182FD1BC0908180918C018F5F8F73D6
:1006A00020918D01821741F0E0918C01F0E0ED582E
:1006B000FE4F958F80938C01FF91EF919F918F91C9
:1006C0002F910F900FBE0F901F9018958081F4CF3F
:1006D0001F920F920FB60F9211242F933F934F93B7
:1006E0005F936F937F938F939F93AF93BF93EF939A
:1006F000FF93E0916801F0916901309749F0A68578
:10070000B7858585968D91FF14C09C918923A1F4AE
:10071000FF91EF91BF91AF919F918F917F916F91D9
:100720005F914F913F912F910F900FBE0F901F90AF
:1007300018959C91892361F7A389B4899C91858937
:10074000809589238C93868997890197F1F7608D2D
:10075000718DA685B785558538E020E0CB010197DE
:10076000F1F7822F90E095958795282F4C9145239E
:1007700009F02068315091F7868D81FD2095809198
:10078000670190E001968F739927309166013817C1
:1007900099F0A0916701B0E0AA5DBE4F2C938093C1
:1007A0006701828D938D0197F1F7A389B4898C91AC
:1007B0009589892B8C93ACCF868D8160868FF1CF04
:1007C000109276011092750188EE93E0A0E0B0E0FF
:1007D0008093770190937801A0937901B0937A0187
:1007E00024E031E0309374012093730125EC30E074
:1007F0003093800120937F0124EC30E0309382011C
:100800002093810120EC30E0309384012093830118
:1008100021EC30E0309386012093850122EC30E01A
:10082000309388012093870126EC30E030938A01D1
:100830002093890110928C0110928D0110928E01EB
:1008400010928F01109213021092120280931402E0
:1008500090931502A0931602B093170286E191E0DF
:100860009093110280931002109227021092260298
:10087000109229021092280210922B0210922A0242
:1008800010922D0210922C0260912E026E7F6D7FCD
:1008900060932E026695617081E0682785E00E9472
:1008A0008D0061E085E00E94D900E3EBF0E0E49187
:1008B000E0932002EFE9F0E0E491F0E0EE0FFF1F9B
:1008C000E057FF4F859194919093220280932102EB
:1008D00060E086E00E94D90080912E0281FD04C074
:1008E00061E086E00E948D0086E080931C02E4EBCC
:1008F000F0E0E491E0931D02E0EAF0E0E491F0E042
:10090000EE0FFF1FEA57FF4F8591949190931F02BE
:1009100080931E020895789484B5826084BD84B566
:10092000816084BD85B5826085BD85B5816085BDEA
:1009300080916E00816080936E00109281008091A2
:10094000810082608093810080918100816080932A
:100950008100809180008160809380008091B1004F
:1009600084608093B1008091B00081608093B0007A
:1009700080917A00846080937A0080917A0082600E
:1009800080937A0080917A00816080937A008091D0
:100990007A00806880937A001092C10061E088E05C
:1009A0000E94D90061E089E00E94D900E0918301B2
:1009B000F091840182E08083E0917F01F0918001D9
:1009C0001082E0918101F09182018FEC808310927E
:1009D0008B01E0918701F091880186E08083E091AE
:1009E0008501F0918601808180618083E09185019D
:1009F000F0918601808188608083E0918501F0918B
:100A00008601808180688083E0918501F091860174
:100A100080818F7D808361E08DE00E94D9001092FB
:100A20002B0210922A021092290210922802109290
:100A30002702109226028DE991E090932D02809377
:100A40002C0290911C02963108F047C02DEB30E04B
:100A500030932702209326022BE931E030932902BC
:100A6000209328022CE231E030932B0220932A02BB
:100A70002091680084E0983048F031E09E3008F41E
:100A800030E081E001C0880F3A95EAF7822B80932D
:100A900068002DE630E0983050F02BE630E09E30D4
:100AA00030F02CE630E0963110F030E020E030936A
:100AB000240220932302292F30E0983008F069C0E7
:100AC00081E001C0880F9A95EAF780932502809112
:100AD0002C0290912D020197F1F780912A029091BA
:100AE0002B02892B49F1E0916801F091690182E0C4
:100AF000E031F80709F1309739F0A389B4899C9166
:100B00008589809589238C9380912E028E7F809396
:100B10002E02109267011092660180E192E090939C
:100B2000690180936801E0912302F09124028081A1
:100B300090912502892B808300E010E080E192E013
:100B40000E948C02892B91F161E08DE00E948D0062
:100B500080E192E00E94A202D82F80E192E00E9400
:100B6000A202C82F61E0DC3419F0DC3621F460E029
:100B700088E00E948D0061E0C63439F00C2E000C34
:100B8000DD0BC452D140D1F660E089E00E948D00B7
:100B9000D5CF9E3040F42850310981E001C0880F44
:100BA0002A95EAF792CF2E503109F7CF011511059A
:100BB00029F20E947401882309F4C0CF0E9400002A
:100BC000BDCF86E191E09093110280931002809155
:100BD0006801909169018051924071F4E091230283
:100BE000F091240290818091250280958923808351
:100BF00010926901109268010895EE0FFF1F059091
:100C0000F491E02D099410E0C2E6D0E004C0FE01AA
:100C10000E94FD052196C336D107C9F7F894FFCF8E
:100C200000000000AA010A013701F701680146012E
:100C30005A010000000030020A01C3022F028C0298
:060C4000A202170266008B
:00000001FF
