:100000000C945D000C9485000C9485000C94850084
:100010000C9485000C9485000C9485000C9485004C
:100020000C9485000C9485000C9485000C94BE0300
:100030000C9485000C9485000C9485000C9485002C
:100040000C9474030C9485000C9485000C9485002A
:100050000C9485000C9485000C9485000C9485000C
:100060000C9485000C94850000000008000201003B
:100070000003040700000000000000000000000072
:10008000250028002B0000000000240027002A0083
:10009000040404040404040402020202020203032E
:1000A0000303030301020408102040800102040836
:1000B0001020010204081020CD0511241FBECFEF2F
:1000C000D8E0DEBFCDBF11E0A0E0B1E0ECE4FDE0A0
:1000D00002C005900D92AC32B107D9F721E0ACE235
:1000E000B1E001C01D92AD37B207E1F710E0CDE5F8
:1000F000D0E004C02197FE010E949E06CC35D107B6
:10010000C9F70E947A040C94A4060C94000090E0B5
:10011000FC01EC55FF4F249180579F4FFC018491C7
:10012000882399F090E0880F991FFC01EA57FF4F50
:10013000A591B491FC01E458FF4F859194918FB73C
:10014000F894EC91E22BEC938FBF089590E0FC01C2
:10015000E859FF4F2491FC01EC55FF4F3491FC010D
:10016000E057FF4FE491EE23C9F0222339F023300A
:1001700001F1A8F4213019F1223029F1F0E0EE0F5D
:10018000FF1FE458FF4FA591B4918FB7F894EC91FD
:10019000611126C030953E233C938FBF08952730D0
:1001A000A9F02830C9F0243049F7809180008F7D74
:1001B00003C0809180008F7780938000DFCF84B56B
:1001C0008F7784BDDBCF84B58F7DFBCF8091B0006E
:1001D0008F778093B000D2CF8091B0008F7DF9CF20
:1001E0003E2BDACF8E50806480937C0080917A0021
:1001F000806480937A0080917A0086FDFCCF8091A4
:100200007800909179000895AF92BF92CF92DF92DB
:10021000EF92FF920F931F93CF93DF936C017B01BB
:100220008B01040F151FEB015E01AE18BF08C0174C
:10023000D10759F06991D601ED91FC910190F081BF
:10024000E02DC6010995892B79F7C501DF91CF9182
:100250001F910F91FF90EF90DF90CF90BF90AF90E4
:100260000895089590E080E00895CF92DF92EF9294
:10027000FF92CF93DF93EC01603282E07807CCF5F8
:10028000653B710514F064EB70E0898128E830E08B
:10029000281B310987FD3395220F331F220F331F8F
:1002A0006901330FEE08FF088A8128E532E0281B38
:1002B000310987FD3395220F331F220F331F032E81
:1002C000000C440B550B2C193D094E095F09DB014D
:1002D00077FF02C0B0E0A0E00E94590624EB30E0B6
:1002E00040E050E00E942F06C20ED31EE41EF51E11
:1002F000B601E881EC3070F5298188E890E0821B36
:10030000910927FD9395880F991F880F991F6817EA
:1003100079077CF02A8188E592E0821B910927FD0C
:100320009395880F991F880F991F681779070CF408
:10033000CB010297880F991F4FB7F8942E2F30E00A
:10034000F901EE0FFF1FE20FF31FE25DFE4F9283F4
:1003500081834FBFDF91CF91FF90EF90DF90CF90DF
:100360000895892B79F41092800082E080938100B7
:100370001092850010928400B19A80916F00826083
:1003800080936F000895FC0101900020E9F73197F8
:10039000AF01481B590BBC0185E691E00C940401A8
:1003A0008F929F92AF92BF920F931F93CF93DF9341
:1003B000CDB7DEB7A1970FB6F894DEBF0FBECDBFA5
:1003C00019A2423008F44AE08E010F5D1F4F842EBF
:1003D000912CB12CA12CA50194010E946106E62F5D
:1003E000B901CA01EA30F4F4E05DD801EE938D0161
:1003F000232B242B252B79F790E080E0109719F020
:10040000CD010E94C301A1960FB6F894DEBF0FBEC6
:10041000CDBFDF91CF911F910F91BF90AF909F9073
:100420008F900895E95CE1CFCF93DF93EC0160E01A
:100430008E810E94A60061E08E810E94A60060E08D
:100440008E810E94A6008BE891E00197F1F7DF9181
:10045000CF910895CF92DF92EF92FF920F931F9367
:10046000CF93DF936C017C0187E0E80EF11CD0E0B4
:10047000C0E0062F10E0B8010C2E02C075956795FC
:100480000A94E2F76170F70181917F010E94A60052
:100490002196C430D10579F7C601DF91CF911F9124
:1004A0000F91FF90EF90DF90CF900C941402CF92B9
:1004B000DF92EF92FF920F931F93CF93DF93EC01A4
:1004C000F62E642F8C810E94A6008D818F3F19F03B
:1004D00060E00E94A6000F2D10E08F8584FF25C0EC
:1004E0006E0187E0C80ED11CF12CE12CB8010E2C56
:1004F00002C0759567950A94E2F76170F6018191E3
:100500006F010E94A600FFEFEF1AFF0A88E0E816CD
:10051000F10461F7CE01DF91CF911F910F91FF9010
:10052000EF90DF90CF900C941402B80184E07595A1
:1005300067958A95E1F7CE010E942A026F2DCE01C0
:10054000DF91CF911F910F91FF90EF90DF90CF90AF
:100550000C942A0240E0682F85E691E00C94570243
:10056000CF93DF93823029F4909174019860909337
:100570007401809378011092790180E480937A016C
:1005800080E180937B0180E580937C01809169010B
:100590000E94870080916A018F3F11F00E948700BE
:1005A00080916B010E948700C5E6D1E09E0125562F
:1005B00031408091740184FD0AC084E090E021966E
:1005C000281739073CF48E810E948700EFCF88E01E
:1005D00090E0F5CF8BE39DE00197F1F760E080912B
:1005E00069010E94A60060E080916B010E94A60054
:1005F00080916A018F3F19F060E00E94A60080910F
:10060000740184FD39C063E085E691E00E942A020E
:10061000CBE4D6E4CE010197F1F763E085E691E003
:100620000E942A022197F1F763E085E691E00E949B
:100630002A0283E592E00197F1F762E085E691E016
:100640000E942A028091740180620E94AA0284E0C2
:10065000809375018CE00E94AA0281E00E94AA02A8
:100660008BE39FE10197F1F782E08093760186E0CA
:10067000DF91CF910C94AA0280620E94AA028BE4BF
:1006800096E40197F1F78091740180620E94AA02BA
:1006900083E592E00197F1F78091740180620E94F6
:1006A000AA02D0CF41E00E94570281E090E0089575
:1006B000CF92DF92EF92FF926B017C0141E06DE2FD
:1006C00085E691E00E94570266277727CB016C19D7
:1006D0007D098E099F094AE00E94D0010196FF9092
:1006E000EF90DF90CF9008951F920F920FB60F9268
:1006F00011242F933F938F939F93AF93BF93809138
:10070000610190916201A0916301B0916401309107
:10071000600123E0230F2D3758F50196A11DB11D6F
:10072000209360018093610190936201A093630123
:10073000B093640180915C0190915D01A0915E0194
:10074000B0915F010196A11DB11D80935C01909352
:100750005D01A0935E01B0935F01BF91AF919F9146
:100760008F913F912F910F900FBE0F901F90189572
:1007700026E8230F0296A11DB11DD2CF1F920F9222
:100780000FB60F9211242F933F934F935F936F9364
:100790007F938F939F93AF93BF93CF93DF93EF9309
:1007A000FF9380912D01C0912C01D0E087FF24C0E0
:1007B000109285001092840080912D018F5F8093AC
:1007C0002D0180912D01082E000C990B8C179D078F
:1007D00024F480912D018C30C4F18091840090919B
:1007E0008500049680349C4908F47AC08091840086
:1007F00090918500049676C080912D01082E000C02
:10080000990B8C179D07C4F6E0912D018E2FEE0FEA
:10081000990BFC01EE0FFF1FE80FF91FE25DFE4F81
:10082000808186FFC9CFE0912D018E2FEE0F990BAD
:10083000FC01EE0FFF1FE80FF91FE25DFE4F808104
:1008400060E08F730E94A600B7CF209184003091A2
:100850008500E0912D018E2FEE0F990BFC01EE0F1C
:10086000FF1FE80FF91FE25DFE4F81819281820F29
:10087000931F9093890080938800E0912D018E2F23
:10088000EE0F990BFC01EE0FFF1FE80FF91FE25D61
:10089000FE4F808186FF11C0E0912D018E2FEE0F5B
:1008A000990BFC01EE0FFF1FE80FF91FE25DFE4FF1
:1008B000808161E08F730E94A600FF91EF91DF912C
:1008C000CF91BF91AF919F918F917F916F915F91E8
:1008D0004F913F912F910F900FBE0F901F90189541
:1008E00080E49CE990938900809388008FEF809347
:1008F0002D01E3CF789484B5826084BD84B5816096
:1009000084BD85B5826085BD85B5816085BD8091DA
:100910006E00816080936E00109281008091810052
:10092000826080938100809181008160809381004A
:10093000809180008160809380008091B10084600C
:100940008093B1008091B00081608093B00080916D
:100950007A00846080937A0080917A00826080932C
:100960007A0080917A00816080937A0080917A0089
:10097000806880937A001092C100809155018C307C
:1009800008F042C089E00E94870080915501282F1D
:1009900030E0F901EE0FFF1FE20FF31FE25DFE4FA3
:1009A0009081907C9960908310925601109257012B
:1009B0002CE0622F0E94920690E0829FB0011124E9
:1009C00030E020E0AB01420F531FFA01EE0FFF1F92
:1009D000E40FF51FE25DFE4F408146FD07C02F5F2B
:1009E0003F4F2C30310571F70E94B101E091550164
:1009F0008E2F90E0FC01EE0FFF1FE80FF91FE25D64
:100A0000FE4F808180648083809152018C3008F099
:100A100042C08AE00E94870080915201282F30E076
:100A2000F901EE0FFF1FE20FF31FE25DFE4F908111
:100A3000907C9A60908310925301109254012CE0A4
:100A4000622F0E94920690E0829FB001112430E054
:100A500020E0AB01420F531FFA01EE0FFF1FE40F1E
:100A6000F51FE25DFE4F408146FD07C02F5F3F4FFF
:100A70002C30310571F70E94B101E09152018E2FA7
:100A800090E0FC01EE0FFF1FE80FF91FE25DFE4F43
:100A900080818064808382E00E94B002C0E0D0E068
:100AA0008EE00E94F2008C0190935B0180935A01CA
:100AB0008FE00E94F20090935901809358018017B3
:100AC00091070CF053C06CE370E085E591E00E9463
:100AD000350168E770E082E591E00E943501E1E0D0
:100AE000809178018111E0E0E195F0E0EB59FE4F53
:100AF000848980680E94AA028CE091E00E94C30170
:100B000060915A0170915B01072E000C880B990BC4
:100B100097FF39C00E9458038AE191E00E94C30107
:100B2000E0917801E23098F5E150F0E0EB59FE4FAA
:100B3000848980680E94AA028DE191E00E94C3012D
:100B40006091580170915901072E000C880B990B88
:100B500097FF1FC00E9458038AE191E00E94C301E1
:100B6000209709F49DCF0E9400009ACF081719071B
:100B70000CF0B5CF68E770E085E591E00E943501A3
:100B80006CE370E0A8CF4AE00E94D001C5CFE1E05D
:100B9000CCCF4AE00E94D001DFCFCF931092680102
:100BA0001092670184E091E0909366018093650163
:100BB0008CE080936901CFEFC0936A018BE0809352
:100BC0006B0185E080936C0184E080936D0183E08C
:100BD00080936E0182E080936F01109270011092F9
:100BE000710110927201109273011092740181E0F0
:100BF0000E94B00280912C018C3050F591E0980F4A
:100C000090932C018093550190E0FC01EE0FFF1FA3
:100C1000E80FF91FE25DFE4F88EB9BE09283818332
:100C200080912C018C30B8F491E0980F90932C01B6
:100C30008093520190E0FC01EE0FFF1FE80FF91FB7
:100C4000E25DFE4F88EB9BE092838183CF91089514
:100C5000C0935501E5CF8FEF80935201F7CF052E5A
:100C600097FB1EF400940E94460657FD07D00E9491
:100C7000610607FC03D04EF40C944606509540954F
:100C8000309521953F4F4F4F5F4F08959095809538
:100C9000709561957F4F8F4F9F4F08950E948306F7
:100CA000A59F900DB49F900DA49F800D911D1124C0
:100CB0000895B7FF0C944E060E944E06821B930BBC
:100CC0000895A1E21A2EAA1BBB1BFD010DC0AA1F8D
:100CD000BB1FEE1FFF1FA217B307E407F50720F0A5
:100CE000A21BB30BE40BF50B661F771F881F991F20
:100CF0001A9469F760957095809590959B01AC0169
:100D0000BD01CF010895A29FB001B39FC001A39F71
:100D1000700D811D1124911DB29F700D811D112434
:100D2000911D0895991B79E004C0991F961708F04A
:100D3000961B881F7A95C9F780950895EE0FFF1FBF
:0C0D40000590F491E02D0994F894FFCF89
:100D4C000000000052030401320131014C445220D6
:100D5C00312072656164733D20000D0A004C4452D1
:0C0D6C0020322072656164733D2000009D
:00000001FF
