:100000000C945D000C9485000C9485000C94850084
:100010000C9485000C9485000C9485000C9485004C
:100020000C9485000C9485000C9485000C949C0322
:100030000C9485000C9485000C9485000C9485002C
:100040000C94FA020C9485000C946A030C944403FB
:100050000C9485000C9485000C9485000C9485000C
:100060000C9485000C9485000000000024002700FB
:100070002A0000000000250028002B0004040404CE
:100080000404040402020202020203030303030342
:10009000010204081020408001020408102001021F
:1000A00004081020000000080002010000030407FB
:1000B0000000000000000000580411241FBECFEF14
:1000C000D8E0DEBFCDBF11E0A0E0B1E0E0E7FDE0A9
:1000D00002C005900D92A63AB107D9F722E0A6EA30
:1000E000B1E001C01D92AB37B207E1F710E0CDE5FA
:1000F000D0E004C02197FE010E94B006CC35D107A4
:10010000C9F70E94B5040C94B6060C9400008F92B7
:100110009F92AF92BF92FF920F931F93CF93DF9363
:10012000F09078022BE02F1508F44CC020917A0251
:1001300008E512E0021B110927FD1395000F111F9E
:10014000000F111F20917902C8E8D0E0C21BD1092D
:1001500027FDD395CC0FDD1FCC0FDD1F4E010D2EDB
:10016000000CAA08BB089801012E000C440B550B8B
:10017000281939094A095B09DC010E946B0624EB46
:1001800030E040E050E00E944106820E931EA41E23
:10019000B51E8C169D062CF0E801801691060CF415
:1001A000E4012297CC0FDD1F2FB7F8948F2D90E03C
:1001B000FC01EE0FFF1FE80FF91FED5AFD4FD28330
:1001C000C1832FBFDF91CF911F910F91FF90BF90FF
:1001D000AF909F908F90089590E0FC01EC55FF4FF9
:1001E0002491FC01E057FF4F3491FC01E458FF4F8C
:1001F000E491EE23C9F0222339F0233001F1A8F471
:10020000213019F1223029F1F0E0EE0FFF1FEE58F6
:10021000FF4FA591B4918FB7F894EC91611126C06E
:1002200030953E233C938FBF08952730A9F02830A6
:10023000C9F0243049F7809180008F7D03C0809100
:1002400080008F7780938000DFCF84B58F7784BD67
:10025000DBCF84B58F7DFBCF8091B0008F7780930B
:10026000B000D2CF8091B0008F7DF9CF3E2BDACF96
:10027000CF93DF9390E0FC01E057FF4F2491845827
:100280009F4FFC0184918823D1F090E0880F991F43
:10029000FC01E859FF4FA591B491FC01EE58FF4FC6
:1002A000C591D49161110EC09FB7F8948C91E22F43
:1002B000E0958E238C932881E223E8839FBFDF9112
:1002C000CF9108958FB7F894EC91E22BEC938FBF08
:1002D000F6CF8E50806480937C0080917A00806499
:1002E00080937A0080917A0086FDFCCF809178001F
:1002F000909179000895AF92BF92CF92DF92EF92E2
:10030000FF920F931F93CF93DF936C017B018B01BF
:10031000040F151FEB015E01AE18BF08C017D1070F
:1003200059F06991D601ED91FC910190F081E02D99
:10033000C6010995892B79F7C501DF91CF911F91EE
:100340000F91FF90EF90DF90CF90BF90AF90089506
:10035000FC01538D448D252F30E0842F90E0821BCB
:10036000930B541710F0CF96089501970895FC0150
:10037000918D828D981761F0A28DAE0FBF2FB11DA8
:100380005D968C91928D9F5F9F73928F90E0089500
:100390008FEF9FEF0895FC01918D828D981731F0BA
:1003A000828DE80FF11D858D90E008958FEF9FEF0E
:1003B0000895FC01918D228D892F90E0805C9F4FE4
:1003C000821B91098F739927089586EB91E00E9413
:1003D000D90121E0892B09F420E0822F089580E0E3
:1003E00090E0892B29F00E94E50181110C94000016
:1003F0000895FC01A48DA80FB92FB11DA35ABF4FBA
:100400002C91848D90E001968F739927848FA68913
:10041000B7892C93A089B1898C91837080648C9367
:10042000938D848D981306C00288F389E02D808116
:100430008F7D80830895EF92FF920F931F93CF9348
:10044000DF93EC0181E0888F9B8D8C8D98131AC00F
:10045000E889F989808185FF15C09FB7F894EE89F6
:10046000FF896083E889F989808183708064808353
:100470009FBF81E090E0DF91CF911F910F91FF909E
:10048000EF900895F62E0B8D10E00F5F1F4F0F7346
:100490001127E02E8C8D8E110CC00FB607FCFACF01
:1004A000E889F989808185FFF5CFCE010E94F901A5
:1004B000F1CFEB8DEC0FFD2FF11DE35AFF4FF082D2
:1004C0009FB7F8940B8FEA89FB8980818062CFCF38
:1004D000CF93DF93EC01888D8823B9F0AA89BB897B
:1004E000E889F9898C9185FD03C0808186FD0DC066
:1004F0000FB607FCF7CF8C9185FFF2CF808185FF87
:10050000EDCFCE010E94F901E9CFDF91CF9108959F
:10051000FC0101900020E9F73197AF01481B590B0E
:10052000BC0186EB91E00C947B018F929F92AF927D
:10053000BF920F931F93CF93DF93CDB7DEB7A197F1
:100540000FB6F894DEBF0FBECDBF19A2423008F43B
:100550004AE08E010F5D1F4F842E912CB12CA12CEF
:10056000A50194010E947306E62FB901CA01EA3081
:10057000F4F4E05DD801EE938D01232B242B252B81
:1005800079F790E080E0109719F0CD010E94880281
:10059000A1960FB6F894DEBF0FBECDBFDF91CF910D
:1005A0001F910F91BF90AF909F908F900895E95C3D
:1005B000E1CFCF92DF92EF92FF92CF93DF936B0167
:1005C0007C016DE286EB91E00E941B02EC01662744
:1005D0007727CB016C197D098E099F094AE00E949B
:1005E00095028C0F9D1FDF91CF91FF90EF90DF90D0
:1005F000CF9008951F920F920FB60F9211242F9350
:100600003F938F939F93AF93BF938091B20190914B
:10061000B301A091B401B091B5013091B10123E0D3
:10062000230F2D3758F50196A11DB11D2093B1015F
:100630008093B2019093B301A093B401B093B5013C
:100640008091AD019091AE01A091AF01B091B00148
:100650000196A11DB11D8093AD019093AE01A093B1
:10066000AF01B093B001BF91AF919F918F913F9136
:100670002F910F900FBE0F901F90189526E8230F13
:100680000296A11DB11DD2CF1F920F920FB60F92ED
:1006900011242F933F934F935F936F937F938F9387
:1006A0009F93AF93BF93EF93FF9386EB91E00E94EC
:1006B000F901FF91EF91BF91AF919F918F917F9140
:1006C0006F915F914F913F912F910F900FBE0F90BF
:1006D0001F9018951F920F920FB60F9211242F930F
:1006E0008F939F93EF93FF93E091C601F091C70121
:1006F0008081E091CC01F091CD0182FD1BC0908101
:100700008091CF018F5F8F732091D001821741F0CC
:10071000E091CF01F0E0EA54FE4F958F8093CF0136
:10072000FF91EF919F918F912F910F900FBE0F909E
:100730001F9018958081F4CF1F920F920FB60F92E1
:1007400011242F933F934F935F936F937F938F93D6
:100750009F93AF93BF93CF93DF93EF93FF938091DA
:10076000A601C0917702D0E087FF24C010928500D7
:10077000109284008091A6018F5F8093A6018091E2
:10078000A601082E000C990B8C179D0724F480916C
:10079000A6018C30C4F1809184009091850004966C
:1007A00080349C4908F47AC080918400909185003F
:1007B000049676C08091A601082E000C990B8C1728
:1007C0009D07C4F6E091A6018E2FEE0F990BFC0158
:1007D000EE0FFF1FE80FF91FED5AFD4F808186FFD6
:1007E000C9CFE091A6018E2FEE0F990BFC01EE0F01
:1007F000FF1FE80FF91FED5AFD4F808160E08F73F6
:100800000E94EC00B7CF2091840030918500E091E8
:10081000A6018E2FEE0F990BFC01EE0FFF1FE80FC4
:10082000F91FED5AFD4F81819281820F931F9093A2
:10083000890080938800E091A6018E2FEE0F990B1E
:10084000FC01EE0FFF1FE80FF91FED5AFD4F8081ED
:1008500086FF11C0E091A6018E2FEE0F990BFC01CF
:10086000EE0FFF1FE80FF91FED5AFD4F808161E089
:100870008F730E94EC00FF91EF91DF91CF91BF91B8
:10088000AF919F918F917F916F915F914F913F9128
:100890002F910F900FBE0F901F90189580E49CE948
:1008A00090938900809388008FEF8093A601E3CF17
:1008B0001092B9011092B80188EE93E0A0E0B0E088
:1008C0008093BA019093BB01A093BC01B093BD018A
:1008D00084E091E09093B7018093B60185EC90E0BD
:1008E0009093C3018093C20184EC90E09093C50182
:1008F0008093C40180EC90E09093C7018093C6017F
:1009000081EC90E09093C9018093C80182EC90E063
:100910009093CB018093CA0186EC90E09093CD0137
:100920008093CC011092CF011092D0011092D1018E
:100930001092D201809177028C3098F491E0980F58
:10094000909377028093780290E0FC01EE0FFF1FF6
:10095000E80FF91FED5AFD4F88EB9BE092838183EE
:1009600008958FEF809378020895789484B582601B
:1009700084BD84B5816084BD85B5826085BD85B543
:10098000816085BD80916E00816080936E001092C1
:10099000810080918100826080938100809181003C
:1009A00081608093810080918000816080938000CD
:1009B0008091B10084608093B1008091B00081602B
:1009C0008093B00080917A00846080937A00809157
:1009D0007A00826080937A0080917A0081608093AF
:1009E0007A0080917A00806880937A001092C1002A
:1009F00061E083E00E94380161E085E00E943801F7
:100A000061E086E00E94380161E089E00E943801DF
:100A1000809178028C3008F051C061E08AE00E9439
:100A2000380180917802282F30E0F901EE0FFF1F86
:100A3000E20FF31FED5AFD4F9081907C9A609083F6
:100A40001092790210927A022CE0622F0E94A40682
:100A5000829FB001112430E020E0AB01420F531F10
:100A6000FA01EE0FFF1FE40FF51FED5AFD4F9081C5
:100A700096FD16C02F5F3F4F2C30310571F7811165
:100A80000FC01092800082E0809381001092850058
:100A900010928400B19A80916F00826080936F0001
:100AA000E09178028E2F90E0FC01EE0FFF1FE80F1F
:100AB000F91FED5AFD4F80818064808360E08EE0F5
:100AC0000E94380160E08FE00E94380160E080E120
:100AD0000E94380160E081E10E943801E091C60186
:100AE000F091C70182E08083E091C201F091C301DF
:100AF0001082E091C401F091C5018FEC80831092C7
:100B0000CE01E091CA01F091CB0186E08083E091B3
:100B1000C801F091C901808180618083E091C801A2
:100B2000F091C901808188608083E091C801F091D3
:100B3000C901808180688083E091C801F091C9017A
:100B400080818F7D808300E010E08EE00E9469014B
:100B50009093AC018093AB018FE00E946901909368
:100B6000AA018093A90180E10E946901EC019093A0
:100B7000A8018093A70181E10E9469018C179D075C
:100B8000BCF582E191E00E9488028DE290E00E9433
:100B90008700C091A901D091AA01E090AB01F0902B
:100BA000AC01CE15DF05CCF581E591E00E9488020D
:100BB000B701FF0C880B990B97FF2BC00E94D9023D
:100BC0008FE691E00E94880261E085E00E94EC00DF
:100BD00061E083E00E94EC000115110509F4B5CF36
:100BE0000E94E501882309F4B0CF0E940000ADCF38
:100BF000C817D9073CF48DE291E00E94880287E88B
:100C000090E0C5CF87E491E00E9488028AE590E0F9
:100C1000BECF4AE00E949502D3CFEC16FD06DCF46D
:100C200082E791E00E948802BE01DD0F880B990BDC
:100C300097FF0DC00E94D9028FE691E00E948802C2
:100C400061E086E00E94EC0061E089E0C3CF4AE009
:100C50000E949502F1CF8DE891E00E9488028FE614
:100C600091E00E94880260E085E00E94EC0060E074
:100C700083E00E94EC0060E086E00E94EC0060E00F
:100C8000E4CF052E97FB1EF400940E94580657FDF2
:100C900007D00E94730607FC03D04EF40C9458064C
:100CA00050954095309521953F4F4F4F5F4F089598
:100CB00090958095709561957F4F8F4F9F4F0895C8
:100CC0000E949506A59F900DB49F900DA49F800D46
:100CD000911D11240895B7FF0C9460060E946006D0
:100CE000821B930B0895A1E21A2EAA1BBB1BFD01C8
:100CF0000DC0AA1FBB1FEE1FFF1FA217B307E407FB
:100D0000F50720F0A21BB30BE40BF50B661F771F52
:100D1000881F991F1A9469F7609570958095909532
:100D20009B01AC01BD01CF010895A29FB001B39F0B
:100D3000C001A39F700D811D1124911DB29F700DE4
:100D4000811D1124911D0895991B79E004C0991FFC
:100D5000961708F0961B881F7A95C9F78095089515
:100D6000EE0FFF1F0590F491E02D0994F894FFCF4A
:100D7000000000001B027B01A8016802D901B70135
:100D8000CB015468652063686169722069732074BF
:100D900075726E696E672072696768740054686561
:100DA000206368616972206973207475726E696E60
:100DB00067206C656674004E6F205475726E203A21
:100DC00000546865206368616972206D6F76657391
:100DD00020666F7277617264206279203A20000D7C
:100DE0000A00546865206368616972206D6F7665DA
:100DF00073206261636B776172643A2000546865A6
:100E0000206368616972206973206E6F74206D6F52
:060E100076696E67200008
:00000001FF
